:F3:ASM80 MCD80D.ASM DEBUG


ISIS-II 8080/8085 MACRO ASSEMBLER, V4.1         MCD80A   PAGE    1
COM Externals

  LOC  OBJ         LINE        SOURCE STATEMENT

                      1 $title  ('COM Externals')
                      2         name    mcd80a
                      3         CSEG
                      4 ;       September 14, 1982
                      5
  0000                6 offset  equ     0000h
  0000                7 boot    equ     0000h   ;[JCE] to make SHOW compile
                      8
                      9         EXTRN   PLM
                     10
                     11 ;       EXTERNAL ENTRY POINTS
                     12
  0005               13 mon1    equ     0005h+offset
  0005               14 mon2    equ     0005h+offset
  0005               15 mon2a   equ     0005h+offset
  0005               16 mon3    equ     0005h+offset
                     17         public  mon1,mon2,mon2a,mon3
                     18
                     19 ;       EXTERNAL BASE PAGE DATA LOCATIONS
                     20
  0003               21 iobyte  equ     0003h+offset
  0004               22 bdisk   equ     0004h+offset
  0006               23 maxb    equ     0006h+offset
  0006               24 memsiz  equ     maxb
  0050               25 cmdrv   equ     0050h+offset
  0051               26 pass0   equ     0051h+offset
  0053               27 len0    equ     0053h+offset
  0054               28 pass1   equ     0054h+offset
  0056               29 len1    equ     0056h+offset
  005C               30 fcb     equ     005ch+offset
  005C               31 fcba    equ     fcb
  005C               32 sfcb    equ     fcb
  005C               33 ifcb    equ     fcb
  005C               34 ifcba   equ     fcb
  006C               35 fcb16   equ     006ch+offset
  006D               36 dolla   equ     006dh+offset
  006E               37 parma   equ     006eh+offset
  007C               38 cr      equ     007ch+offset
  007D               39 rr      equ     007dh+offset
  007D               40 rreca   equ     rr
  007F               41 ro      equ     007fh+offset
  007F               42 rreco   equ     ro
  0080               43 tbuff   equ     0080h+offset
  0080               44 buff    equ     tbuff
  0080               45 buffa   equ     tbuff
  0000               46 cpu     equ     0       ; 0 = 8080, 1 = 8086/88, 2 = 68000
                     47
                     48         public  iobyte,bdisk,maxb,memsiz
                     49         public  cmdrv,pass0,len0,pass1,len1
                     50         public  fcb,fcba,sfcb,ifcb,ifcba,fcb16
                     51         public  cr,rr,rreca,ro,rreco,dolla,parma
                     52         public  buff,tbuff,buffa, cpu, boot
                     53
                     54 


ISIS-II 8080/8085 MACRO ASSEMBLER, V4.1         MCD80A   PAGE    2
COM Externals

  LOC  OBJ         LINE        SOURCE STATEMENT

                     55         ;*******************************************************
                     56         ; The interface should proceed the program
                     57         ; so that TRINT becomes the entry point for the
                     58         ; COM file.  The stack is set and memsiz is set
                     59         ; to the top of memory.  Program termination is done
                     60         ; with a return to preserve R/O diskettes.
                     61         ;*******************************************************
                     62
                     63 ;       EXECUTION BEGINS HERE
                     64
                     65 ;
                     66 ;[JCE 17-5-1998] Guard code prevents this program being run under DOS
                     67 ;
  0000 EB            68         db      0EBh,7          ;Sends 8086s to I8086:
  0001 07
  0002 310000   S    69         lxi     sp, stack
  0005 C30000   E    70         JMP     PLM
  0008 00            71         db      0               ;Packing.
                     72 ;
  0009 CD            73 I8086:  db      0CDh,020h       ;INT 20h - terminate immediately
  000A 20
                     74
                     75 ;       PATCH AREA, DATE, VERSION & SERIAL NOS.
                     76
  000B 0000          77         dw      0,0,0,0,0,0,0,0
  000D 0000
  000F 0000
  0011 0000
  0013 0000
  0015 0000
  0017 0000
  0019 0000
  001B 0000          78         dw      0,0,0,0,0,0,0,0
  001D 0000
  001F 0000
  0021 0000
  0023 0000
  0025 0000
  0027 0000
  0029 0000
  002B 0000          79         dw      0,0,0,0,0,0,0,0
  002D 0000
  002F 0000
  0031 0000
  0033 0000
  0035 0000
  0037 0000
  0039 0000
  003B 0000          80         dw      0,0
  003D 0000
  003F 00            81         db      0
  0040 43502F4D      82         db      'CP/M Version 3.0'
  0044 20566572
  0048 73696F6E
  004C 20332E30  


ISIS-II 8080/8085 MACRO ASSEMBLER, V4.1         MCD80A   PAGE    3
COM Externals

  LOC  OBJ         LINE        SOURCE STATEMENT

  0050 436F7079      83         db      'Copyright 1998, '
  0054 72696768
  0058 74203139
  005C 39382C20
  0060 43616C64      84         db      'Caldera, Inc.   '
  0064 6572612C
  0068 20496E63
  006C 2E202020
  0070 31393035      85         db      '190598'        ; version date day-month-year
  0074 3938
  0076 00            86         db      0,0,0,0         ; patch bit map
  0077 00
  0078 00
  0079 00
  007A 36353433      87         db      '654321'        ; Serial no.
  007E 3231
                     88
                     89         END


PUBLIC SYMBOLS
BDISK  A 0004    BOOT   A 0000    BUFF   A 0080    BUFFA  A 0080    CMDRV  A 0050    CPU    A 0000    CR     A 007C
DOLLA  A 006D    FCB    A 005C    FCB16  A 006C    FCBA   A 005C    IFCB   A 005C    IFCBA  A 005C    IOBYTE A 0003
LEN0   A 0053    LEN1   A 0056    MAXB   A 0006    MEMSIZ A 0006    MON1   A 0005    MON2   A 0005    MON2A  A 0005
MON3   A 0005    PARMA  A 006E    PASS0  A 0051    PASS1  A 0054    RO     A 007F    RR     A 007D    RRECA  A 007D
RRECO  A 007F    SFCB   A 005C    TBUFF  A 0080

EXTERNAL SYMBOLS
PLM    E 0000

USER SYMBOLS
BDISK  A 0004    BOOT   A 0000    BUFF   A 0080    BUFFA  A 0080    CMDRV  A 0050    CPU    A 0000    CR     A 007C
DOLLA  A 006D    FCB    A 005C    FCB16  A 006C    FCBA   A 005C    I8086  C 0009    IFCB   A 005C    IFCBA  A 005C
IOBYTE A 0003    LEN0   A 0053    LEN1   A 0056    MAXB   A 0006    MEMSIZ A 0006    MON1   A 0005    MON2   A 0005
MON2A  A 0005    MON3   A 0005    OFFSET A 0000    PARMA  A 006E    PASS0  A 0051    PASS1  A 0054    PLM    E 0000
RO     A 007F    RR     A 007D    RRECA  A 007D    RRECO  A 007F    SFCB   A 005C    TBUFF  A 0080

ASSEMBLY COMPLETE,   NO ERRORS
