:F3:ASM80 MCD80H.ASM DEBUG


ISIS-II 8080/8085 MACRO ASSEMBLER, V4.1         MCD80A   PAGE    1
COM Externals

  LOC  OBJ         LINE        SOURCE STATEMENT

                      1 $title  ('COM Externals')
                      2         name    mcd80a
                      3         CSEG
                      4 ;       September 14, 1982
                      5
  0000                6 offset  equ     0000h
                      7
                      8
                      9         EXTRN   PLM
                     10
                     11 ;       EXTERNAL ENTRY POINTS
                     12
  0005               13 mon1    equ     0005h+offset
  0005               14 mon2    equ     0005h+offset
  0005               15 mon2a   equ     0005h+offset
  0005               16 mon3    equ     0005h+offset
                     17         public  mon1,mon2,mon2a,mon3
                     18
                     19 ;       EXTERNAL BASE PAGE DATA LOCATIONS
                     20
  0003               21 iobyte  equ     0003h+offset
  0004               22 bdisk   equ     0004h+offset
  0006               23 maxb    equ     0006h+offset
  0006               24 memsiz  equ     maxb
  0050               25 cmdrv   equ     0050h+offset
  0051               26 pass0   equ     0051h+offset
  0053               27 len0    equ     0053h+offset
  0054               28 pass1   equ     0054h+offset
  0056               29 len1    equ     0056h+offset
  005C               30 fcb     equ     005ch+offset
  005C               31 fcba    equ     fcb
  005C               32 sfcb    equ     fcb
  005C               33 ifcb    equ     fcb
  005C               34 ifcba   equ     fcb
  006C               35 fcb16   equ     006ch+offset
  006D               36 dolla   equ     006dh+offset
  006E               37 parma   equ     006eh+offset
  007C               38 cr      equ     007ch+offset
  007D               39 rr      equ     007dh+offset
  007D               40 rreca   equ     rr
  007F               41 ro      equ     007fh+offset
  007F               42 rreco   equ     ro
  0080               43 tbuff   equ     0080h+offset
  0080               44 buff    equ     tbuff
  0080               45 buffa   equ     tbuff
  0000               46 cpu     equ     0       ; 0 = 8080, 1 = 8086/88, 2 = 68000
                     47
                     48         public  iobyte,bdisk,maxb,memsiz
                     49         public  cmdrv,pass0,len0,pass1,len1
                     50         public  fcb,fcba,sfcb,ifcb,ifcba,fcb16
                     51         public  cr,rr,rreca,ro,rreco,dolla,parma
                     52         public  buff,tbuff,buffa, cpu
                     53
                     54 


ISIS-II 8080/8085 MACRO ASSEMBLER, V4.1         MCD80A   PAGE    2
COM Externals

  LOC  OBJ         LINE        SOURCE STATEMENT

                     55         ;*******************************************************
                     56         ; The interface should proceed the program
                     57         ; so that TRINT becomes the entry point for the
                     58         ; COM file.  The stack is set and memsiz is set
                     59         ; to the top of memory.  Program termination is done
                     60         ; with a return to preserve R/O diskettes.
                     61         ;*******************************************************
                     62
                     63 ;       EXECUTION BEGINS HERE
                     64
  0000 310000   S    65         lxi     sp, stack
  0003 3A5000        66         lda     cmdrv
  0006 32C704        67         sta     04c7h+offset    ; constant area for HELP.HLP
  0009 C30000   E    68         JMP     PLM
                     69
                     70 ;       PATCH AREA, DATE, VERSION & SERIAL NOS.
                     71
  000C 0000          72         dw            0,0,0,0,0
  000E 0000
  0010 0000
  0012 0000
  0014 0000
  0016 0000          73         dw      0,0,0,0,0,0,0,0
  0018 0000
  001A 0000
  001C 0000
  001E 0000
  0020 0000
  0022 0000
  0024 0000
  0026 0000          74         dw      0,0,0,0,0,0,0,0
  0028 0000
  002A 0000
  002C 0000
  002E 0000
  0030 0000
  0032 0000
  0034 0000
  0036 0000          75         dw      0,0,0,0,0
  0038 0000
  003A 0000
  003C 0000
  003E 0000
                     76
  0040 43502F4D      77         db      'CP/M Version 3.0'
  0044 20566572
  0048 73696F6E
  004C 20332E30
  0050 434F5059      78         db      'COPYRIGHT 1982, '
  0054 52494748
  0058 54203139
  005C 38322C20
  0060 44494749      79         db      'DIGITAL RESEARCH'
  0064 54414C20
  0068 52455345  


ISIS-II 8080/8085 MACRO ASSEMBLER, V4.1         MCD80A   PAGE    3
COM Externals

  LOC  OBJ         LINE        SOURCE STATEMENT

  006C 41524348
  0070 31353132      80         db      '151282'        ; version date day-month-year
  0074 3832
  0076 00            81         db      0,0,0,7         ; patch bit map
  0077 00
  0078 00
  0079 07
  007A 36353433      82         db      '654321'        ; Serial no.
  007E 3231
                     83
                     84         END


PUBLIC SYMBOLS
BDISK  A 0004    BUFF   A 0080    BUFFA  A 0080    CMDRV  A 0050    CPU    A 0000    CR     A 007C    DOLLA  A 006D
FCB    A 005C    FCB16  A 006C    FCBA   A 005C    IFCB   A 005C    IFCBA  A 005C    IOBYTE A 0003    LEN0   A 0053
LEN1   A 0056    MAXB   A 0006    MEMSIZ A 0006    MON1   A 0005    MON2   A 0005    MON2A  A 0005    MON3   A 0005
PARMA  A 006E    PASS0  A 0051    PASS1  A 0054    RO     A 007F    RR     A 007D    RRECA  A 007D    RRECO  A 007F
SFCB   A 005C    TBUFF  A 0080

EXTERNAL SYMBOLS
PLM    E 0000

USER SYMBOLS
BDISK  A 0004    BUFF   A 0080    BUFFA  A 0080    CMDRV  A 0050    CPU    A 0000    CR     A 007C    DOLLA  A 006D
FCB    A 005C    FCB16  A 006C    FCBA   A 005C    IFCB   A 005C    IFCBA  A 005C    IOBYTE A 0003    LEN0   A 0053
LEN1   A 0056    MAXB   A 0006    MEMSIZ A 0006    MON1   A 0005    MON2   A 0005    MON2A  A 0005    MON3   A 0005
OFFSET A 0000    PARMA  A 006E    PASS0  A 0051    PASS1  A 0054    PLM    E 0000    RO     A 007F    RR     A 007D
RRECA  A 007D    RRECO  A 007F    SFCB   A 005C    TBUFF  A 0080

ASSEMBLY COMPLETE,   NO ERRORS
