:10010000C306010000003A5D00FE20C831F501CDB4
:100110003E013E0FCD3101FEFFCA0000AF327C0030
:100120003E14CD3101B7CA20013E10CD3101C300CC
:10013000003203014F115C00CD05002204013A0397
:1001400001CD9701CD83012A0401CD92013E3ACD24
:10015000A801215C00CD7401CD83013E2DCDA80105
:10016000CD8301111000197ECD9701CD88012A049D
:10017000017D44C91E10CD83017E23CD97011DC290
:100180007601C93E20C3A8013E0DCDA8013E0AC399
:10019000A8017CCD97017DF507070707CDA001F1E8
:1001A000E60FC69027CE4027C5D5E55F0E02CD05E8
:0501B00000E1D1C1C90E
:0000000000
