:100100000E0CCD05007CE60228417DFE303805CD81
:100110007B0118370E45CD0500E5DDE1DD4EFDDD47
:1001200046FADD5EF7DD56F4DD6EF1DD66EE79A0B0
:10013000A3A2A5A4FEC3201379B0B3B2B5B4FEC385
:100140002009DD6EFEDD66FFCD67011168010E0935
:10015000CD05000E0DCD0500F32171011100F00158
:100160000A00EDB0C300F0E95265626F6F740D0ACA
:1001700024AFD300D3F2D3F3C30000118C010E3CA3
:10018000CD0500C94E444F53332020207101840116
:0000000000
